S01E0000435F41726475696E6F5F4173656D626C65725F4144432E73726563E1
S11300000C9434000C9446000C9446000C94460066
S11300100C9446000C9446000C9446000C94460044
S11300200C9446000C9446000C9446000C94460034
S11300300C9446000C9446000C9446000C94460024
S11300400C9446000C9446000C9446000C94460014
S11300500C9446000C9469000C9446000C944600E1
S11300600C9446000C94460011241FBECFEFD8E038
S1130070DEBFCDBF21E0A0E0B1E001C01D92A430FD
S1130080B207E1F70E9466000C94DA000C940000B9
S1130090EAE7F0E0808180648083089585E48093BA
S11300A07C008FE880937A0080E280937E0008953C
S11300B080E48AB98BB983E884BD81E080936E00C3
S11300C00E944E00789485E085BD08950E945800F2
S11300D0FFCF1F920F920FB60F9211242F933F93CD
S11300E04F935F936F937F938F939F93AF93BF933C
S11300F0EF93FF93609178007091790080E090E035
S11301000E949D006093000170930101809302019D
S1130110909303010E944800FF91EF91BF91AF912A
S11301209F918F917F916F915F914F913F912F910B
S11301300F900FBE0F901F901895E89409C097FB7D
S11301403EF490958095709561957F4F8F4F9F4FAA
S11301509923A9F0F92F96E9BB279395F6958795EE
S113016077956795B795F111F8CFFAF4BB0F11F4B1
S113017060FF1BC06F5F7F4F8F4F9F4F16C0882358
S113018011F096E911C0772321F09EE8872F762F8E
S113019005C0662371F096E8862F70E060E02AF0CF
S11301A09A95660F771F881FDAF7880F96958795BB
S10B01B097F90895F894FFCFBC
S9030000FC
